{
  "_format": "hh-sol-artifact-1",
  "contractName": "ActionExecutor",
  "sourceName": "contracts/ActionExecutor.sol",
  "abi": [
    {
      "inputs": [],
      "stateMutability": "nonpayable",
      "type": "constructor"
    },
    {
      "inputs": [
        {
          "internalType": "address",
          "name": "owner",
          "type": "address"
        }
      ],
      "name": "OwnableInvalidOwner",
      "type": "error"
    },
    {
      "inputs": [
        {
          "internalType": "address",
          "name": "account",
          "type": "address"
        }
      ],
      "name": "OwnableUnauthorizedAccount",
      "type": "error"
    },
    {
      "anonymous": false,
      "inputs": [
        {
          "indexed": true,
          "internalType": "address",
          "name": "caller",
          "type": "address"
        },
        {
          "indexed": false,
          "internalType": "uint256",
          "name": "newCount",
          "type": "uint256"
        }
      ],
      "name": "ActionPerformed",
      "type": "event"
    },
    {
      "anonymous": false,
      "inputs": [
        {
          "indexed": true,
          "internalType": "address",
          "name": "previousOwner",
          "type": "address"
        },
        {
          "indexed": true,
          "internalType": "address",
          "name": "newOwner",
          "type": "address"
        }
      ],
      "name": "OwnershipTransferred",
      "type": "event"
    },
    {
      "inputs": [],
      "name": "actionCount",
      "outputs": [
        {
          "internalType": "uint256",
          "name": "",
          "type": "uint256"
        }
      ],
      "stateMutability": "view",
      "type": "function"
    },
    {
      "inputs": [],
      "name": "owner",
      "outputs": [
        {
          "internalType": "address",
          "name": "",
          "type": "address"
        }
      ],
      "stateMutability": "view",
      "type": "function"
    },
    {
      "inputs": [],
      "name": "performAction",
      "outputs": [],
      "stateMutability": "nonpayable",
      "type": "function"
    },
    {
      "inputs": [],
      "name": "renounceOwnership",
      "outputs": [],
      "stateMutability": "nonpayable",
      "type": "function"
    },
    {
      "inputs": [
        {
          "internalType": "address",
          "name": "newOwner",
          "type": "address"
        }
      ],
      "name": "transferOwnership",
      "outputs": [],
      "stateMutability": "nonpayable",
      "type": "function"
    }
  ],
  "bytecode": "0x608060405234801561001057600080fd5b50338061003757604051631e4fbdf760e01b81526000600482015260240160405180910390fd5b61004081610046565b50610096565b600080546001600160a01b038381166001600160a01b0319831681178455604051919092169283917f8be0079c531659141344cd1fd0a4f28419497f9722a3daafe3b4186f6b6457e09190a35050565b610233806100a56000396000f3fe608060405234801561001057600080fd5b50600436106100575760003560e01c806329da57381461005c5780636c18f73e14610078578063715018a6146100825780638da5cb5b1461008a578063f2fde38b146100a5575b600080fd5b61006560015481565b6040519081526020015b60405180910390f35b6100806100b8565b005b6100806100f9565b6000546040516001600160a01b03909116815260200161006f565b6100806100b33660046101cd565b61010d565b6001805481019081905560405190815233907f9fe4990e9bee5b4d1c836adbcf944f5385b1004f9f7083d391f47e8cbd509d779060200160405180910390a2565b610101610150565b61010b600061017d565b565b610115610150565b6001600160a01b03811661014457604051631e4fbdf760e01b8152600060048201526024015b60405180910390fd5b61014d8161017d565b50565b6000546001600160a01b0316331461010b5760405163118cdaa760e01b815233600482015260240161013b565b600080546001600160a01b038381166001600160a01b0319831681178455604051919092169283917f8be0079c531659141344cd1fd0a4f28419497f9722a3daafe3b4186f6b6457e09190a35050565b6000602082840312156101df57600080fd5b81356001600160a01b03811681146101f657600080fd5b939250505056fea2646970667358221220ec5d07845f9465128f7eaa3e7ab50f7092320d781e27c95110855d28d2d7df7264736f6c63430008140033",
  "linkReferences": {},
  "deployedLinkReferences": {}
}