{
  "_format": "hh-sol-artifact-1",
  "contractName": "PriceCheckHook",
  "sourceName": "contracts/PriceCheckHook.sol",
  "abi": [
    {
      "inputs": [
        {
          "internalType": "uint256",
          "name": "_minThreshold",
          "type": "uint256"
        },
        {
          "internalType": "uint256",
          "name": "_maxThreshold",
          "type": "uint256"
        }
      ],
      "stateMutability": "nonpayable",
      "type": "constructor"
    },
    {
      "inputs": [
        {
          "internalType": "address",
          "name": "owner",
          "type": "address"
        }
      ],
      "name": "OwnableInvalidOwner",
      "type": "error"
    },
    {
      "inputs": [
        {
          "internalType": "address",
          "name": "account",
          "type": "address"
        }
      ],
      "name": "OwnableUnauthorizedAccount",
      "type": "error"
    },
    {
      "anonymous": false,
      "inputs": [
        {
          "indexed": true,
          "internalType": "address",
          "name": "previousOwner",
          "type": "address"
        },
        {
          "indexed": true,
          "internalType": "address",
          "name": "newOwner",
          "type": "address"
        }
      ],
      "name": "OwnershipTransferred",
      "type": "event"
    },
    {
      "anonymous": false,
      "inputs": [
        {
          "indexed": true,
          "internalType": "uint256",
          "name": "proposedPrice",
          "type": "uint256"
        },
        {
          "indexed": true,
          "internalType": "uint256",
          "name": "oraclePrice",
          "type": "uint256"
        },
        {
          "indexed": false,
          "internalType": "bool",
          "name": "isValid",
          "type": "bool"
        },
        {
          "indexed": false,
          "internalType": "bool",
          "name": "withinRange",
          "type": "bool"
        }
      ],
      "name": "PriceValidated",
      "type": "event"
    },
    {
      "anonymous": false,
      "inputs": [
        {
          "indexed": false,
          "internalType": "uint256",
          "name": "oldMinThreshold",
          "type": "uint256"
        },
        {
          "indexed": false,
          "internalType": "uint256",
          "name": "oldMaxThreshold",
          "type": "uint256"
        },
        {
          "indexed": false,
          "internalType": "uint256",
          "name": "newMinThreshold",
          "type": "uint256"
        },
        {
          "indexed": false,
          "internalType": "uint256",
          "name": "newMaxThreshold",
          "type": "uint256"
        },
        {
          "indexed": true,
          "internalType": "address",
          "name": "updatedBy",
          "type": "address"
        }
      ],
      "name": "ThresholdsUpdated",
      "type": "event"
    },
    {
      "inputs": [],
      "name": "BASIS_POINTS",
      "outputs": [
        {
          "internalType": "uint256",
          "name": "",
          "type": "uint256"
        }
      ],
      "stateMutability": "view",
      "type": "function"
    },
    {
      "inputs": [
        {
          "internalType": "uint256",
          "name": "proposedPrice",
          "type": "uint256"
        },
        {
          "internalType": "uint256",
          "name": "oraclePrice",
          "type": "uint256"
        }
      ],
      "name": "checkPrice",
      "outputs": [
        {
          "internalType": "bool",
          "name": "isValid",
          "type": "bool"
        },
        {
          "internalType": "uint256",
          "name": "minAcceptable",
          "type": "uint256"
        },
        {
          "internalType": "uint256",
          "name": "maxAcceptable",
          "type": "uint256"
        }
      ],
      "stateMutability": "view",
      "type": "function"
    },
    {
      "inputs": [],
      "name": "getThresholds",
      "outputs": [
        {
          "internalType": "uint256",
          "name": "min",
          "type": "uint256"
        },
        {
          "internalType": "uint256",
          "name": "max",
          "type": "uint256"
        }
      ],
      "stateMutability": "view",
      "type": "function"
    },
    {
      "inputs": [],
      "name": "maxPriceThreshold",
      "outputs": [
        {
          "internalType": "uint256",
          "name": "",
          "type": "uint256"
        }
      ],
      "stateMutability": "view",
      "type": "function"
    },
    {
      "inputs": [],
      "name": "minPriceThreshold",
      "outputs": [
        {
          "internalType": "uint256",
          "name": "",
          "type": "uint256"
        }
      ],
      "stateMutability": "view",
      "type": "function"
    },
    {
      "inputs": [],
      "name": "owner",
      "outputs": [
        {
          "internalType": "address",
          "name": "",
          "type": "address"
        }
      ],
      "stateMutability": "view",
      "type": "function"
    },
    {
      "inputs": [],
      "name": "renounceOwnership",
      "outputs": [],
      "stateMutability": "nonpayable",
      "type": "function"
    },
    {
      "inputs": [
        {
          "internalType": "uint256",
          "name": "_minThreshold",
          "type": "uint256"
        },
        {
          "internalType": "uint256",
          "name": "_maxThreshold",
          "type": "uint256"
        }
      ],
      "name": "setThresholds",
      "outputs": [],
      "stateMutability": "nonpayable",
      "type": "function"
    },
    {
      "inputs": [
        {
          "internalType": "address",
          "name": "newOwner",
          "type": "address"
        }
      ],
      "name": "transferOwnership",
      "outputs": [],
      "stateMutability": "nonpayable",
      "type": "function"
    },
    {
      "inputs": [
        {
          "internalType": "uint256",
          "name": "proposedPrice",
          "type": "uint256"
        },
        {
          "internalType": "uint256",
          "name": "oraclePrice",
          "type": "uint256"
        }
      ],
      "name": "validateSwapPrice",
      "outputs": [
        {
          "internalType": "bool",
          "name": "isValid",
          "type": "bool"
        }
      ],
      "stateMutability": "nonpayable",
      "type": "function"
    }
  ],
  "bytecode": "0x608060405234801561001057600080fd5b5060405161090938038061090983398101604081905261002f916101e4565b338061005657604051631e4fbdf760e01b8152600060048201526024015b60405180910390fd5b61005f81610194565b50600082116100c25760405162461bcd60e51b815260206004820152602960248201527f5072696365436865636b486f6f6b3a206d696e207468726573686f6c64206d7560448201526807374206265203e20360bc1b606482015260840161004d565b81811161011b5760405162461bcd60e51b815260206004820152602160248201527f5072696365436865636b486f6f6b3a206d6178206d757374206265203e206d696044820152603760f91b606482015260840161004d565b6101286127106002610208565b8111156101865760405162461bcd60e51b815260206004820152602660248201527f5072696365436865636b486f6f6b3a206d6178207468726573686f6c6420746f6044820152650de40d0d2ced60d31b606482015260840161004d565b600191909155600255610233565b600080546001600160a01b038381166001600160a01b0319831681178455604051919092169283917f8be0079c531659141344cd1fd0a4f28419497f9722a3daafe3b4186f6b6457e09190a35050565b600080604083850312156101f757600080fd5b505080516020909101519092909150565b808202811582820484141761022d57634e487b7160e01b600052601160045260246000fd5b92915050565b6106c7806102426000396000f3fe608060405234801561001057600080fd5b506004361061009e5760003560e01c8063c7aa105311610066578063c7aa10531461012f578063d42443e514610152578063e1f1c4a71461015b578063e3064a7714610164578063f2fde38b1461017757600080fd5b806332536eb4146100a35780633cbb3a12146100d8578063715018a6146100ef5780638da5cb5b146100f95780639c3977b514610114575b600080fd5b6100b66100b1366004610566565b61018a565b6040805193151584526020840192909252908201526060015b60405180910390f35b6100e160025481565b6040519081526020016100cf565b6100f761022a565b005b6000546040516001600160a01b0390911681526020016100cf565b600154600254604080519283526020830191909152016100cf565b61014261013d366004610566565b61023e565b60405190151581526020016100cf565b6100e160015481565b6100e161271081565b6100f7610172366004610566565b61031b565b6100f7610185366004610588565b6104ab565b60008060008085116101b75760405162461bcd60e51b81526004016101ae906105b8565b60405180910390fd5b600084116101d75760405162461bcd60e51b81526004016101ae90610602565b612710600154856101e8919061064a565b6101f2919061066f565b915061271060025485610205919061064a565b61020f919061066f565b90508185101580156102215750808511155b92509250925092565b6102326104e9565b61023c6000610516565b565b600080831161025f5760405162461bcd60e51b81526004016101ae906105b8565b6000821161027f5760405162461bcd60e51b81526004016101ae90610602565b600061271060015484610292919061064a565b61029c919061066f565b90506000612710600254856102b1919061064a565b6102bb919061066f565b905060008286101580156102cf5750818611155b604080518215158082526020820152919250869188917f1b8dbe59e2851f5583aaa5ce3233f5c86fea21d064fac131357beb286c4b54b0910160405180910390a3925050505b92915050565b6103236104e9565b600082116103855760405162461bcd60e51b815260206004820152602960248201527f5072696365436865636b486f6f6b3a206d696e207468726573686f6c64206d7560448201526807374206265203e20360bc1b60648201526084016101ae565b8181116103de5760405162461bcd60e51b815260206004820152602160248201527f5072696365436865636b486f6f6b3a206d6178206d757374206265203e206d696044820152603760f91b60648201526084016101ae565b6103eb612710600261064a565b8111156104495760405162461bcd60e51b815260206004820152602660248201527f5072696365436865636b486f6f6b3a206d6178207468726573686f6c6420746f6044820152650de40d0d2ced60d31b60648201526084016101ae565b60018054600280549285905583905560408051828152602081018490529081018590526060810184905290919033907fc50e8a7c6cb39aaceb2862a2d2d5eb16a1d3d51f9349d2a5b141e20283232db49060800160405180910390a250505050565b6104b36104e9565b6001600160a01b0381166104dd57604051631e4fbdf760e01b8152600060048201526024016101ae565b6104e681610516565b50565b6000546001600160a01b0316331461023c5760405163118cdaa760e01b81523360048201526024016101ae565b600080546001600160a01b038381166001600160a01b0319831681178455604051919092169283917f8be0079c531659141344cd1fd0a4f28419497f9722a3daafe3b4186f6b6457e09190a35050565b6000806040838503121561057957600080fd5b50508035926020909101359150565b60006020828403121561059a57600080fd5b81356001600160a01b03811681146105b157600080fd5b9392505050565b6020808252602a908201527f5072696365436865636b486f6f6b3a2070726f706f736564207072696365206d6040820152690757374206265203e20360b41b606082015260800190565b60208082526028908201527f5072696365436865636b486f6f6b3a206f7261636c65207072696365206d7573604082015267074206265203e20360c41b606082015260800190565b808202811582820484141761031557634e487b7160e01b600052601160045260246000fd5b60008261068c57634e487b7160e01b600052601260045260246000fd5b50049056fea2646970667358221220dba83f4a77d1f7faab5ef46270f54f44b46c50f193d529eb1c7c95cdab5703d064736f6c63430008140033",
  "linkReferences": {},
  "deployedLinkReferences": {}
}